:020000040800F2
:1000000000500020D94A0008CF040008D10400089D
:10001000D3040008D5040008D7040008000000003D
:10002000000000000000000000000000D9040008EB
:10003000DB04000800000000DD040008DF04000805
:10004000214B0008214B0008214B0008214B0008E0
:10005000214B0008214B0008214B0008214B0008D0
:10006000214B0008214B0008214B0008214B0008C0
:10007000214B0008214B0008214B0008214B0008B0
:10008000214B0008214B0008214B0008214B0008A0
:10009000E9040008214B0008214B0008214B00080F
:1000A000214B0008214B0008214B0008214B000880
:1000B000214B0008214B0008214B0008214B000870
:1000C000214B0008214B0008214B0008F9040008CF
:1000D000214B0008214B0008214B0008214B000850
:1000E000214B0008214B0008214B000800000000B4
:1000F0000000000000000000000000000000000000
:0C01000000000000000000005FF808F1A3
:10010C00034613F8012B002AFBD1181A013870474B
:10011C0010B5054C237833B9044B13B10448AFF335
:10012C0000800123237010BD7C0100200000000022
:10013C007C4B000808B5034B1BB103490348AFF3D4
:10014C00008008BD00000000800100207C4B0008EE
:10015C002DE9F04188B0002404940594069407948A
:10016C00204B9A6942F020029A619A6902F02002AF
:10017C000192019A9A6942F004029A619A6902F01A
:10018C0004020292029A9A6942F008029A619B69EF
:10019C0003F008030393039BDFF84C8022463821BD
:1001AC00404603F035F9114D22464FF44071284674
:1001BC0003F02EF9382304930127059706940226A1
:1001CC00079604A9404603F015F84FF440730493C6
:1001DC0005970694079604A9284603F00BF808B077
:1001EC00BDE8F0810010024000080140000C014005
:1001FC0072B6FEE700B58DB02422002103A804F0EE
:10020C008AFC0023019302931048114A0260436058
:10021C0083604FF6FF72C260036143618361012307
:10022C0003930593099303A903F0E0FB50B9002352
:10023C000193029301A9054803F05CFD20B90DB0B0
:10024C005DF804FBFFF7D4FFFFF7D2FF700200202C
:10025C00002C014000B58FB000230A930B930C9334
:10026C000D930893099301930293039304930593BD
:10027C000693079327484FF08042026043608360E7
:10028C004FF6FF72C2600361836103F057FB0028D5
:10029C0031D14FF480530A930AA91E4803F0AAFCEB
:1002AC0058BB1C4803F076FB48BB0023089309930A
:1002BC0008A9184803F01EFD18BB60230193002207
:1002CC0002920392059201A9124803F019FCD0B9CD
:1002DC0004220DEB02010F4803F012FCA8B908220E
:1002EC0001A90C4803F00CFC88B90A4800F0F8F995
:1002FC000FB05DF804FBFFF77BFFFFF779FFFFF70B
:10030C0077FFFFF775FFFFF773FFFFF771FFFFF73D
:10031C006FFF00BF2802002000B58DB02422002101
:10032C0003A804F0F8FB0023019302931048114A30
:10033C000260436083604FF6FF72C26003618361A9
:10034C00012303930593099303A903F04FFB50B9C1
:10035C0000230193029301A9054803F0CBFC20B9BB
:10036C000DB05DF804FBFFF743FFFFF741FF00BF43
:10037C00E00100200004004000B58DB024220021D3
:10038C0003A804F0C8FB0023019302931048114A00
:10039C000260436083604FF6FF72C2600361836149
:1003AC00012303930593099303A903F01FFB50B991
:1003BC0000230193029301A9054803F09BFC20B98B
:1003CC000DB05DF804FBFFF713FFFFF711FF00BF43
:1003DC00980100200008004008B50D480D4B036043
:1003EC004FF48273436000238360C36003614361F5
:1003FC004FF4007282610822C2610362436283621D
:10040C000A23C36203F0CEF800B908BDFFF7F0FE73
:10041C00B80200200030014000B595B02822002120
:10042C000DEB020004F077FB002305930693079372
:10043C0008930993019302930393049301220A9264
:10044C004FF480330B930E920222119212934FF4BD
:10045C00E01313930AA802F059FBC0B90F230593BC
:10046C0002210691002307934FF4806208920993AE
:10047C0005A802F07DFD60B91023019300230493BD
:10048C0001A802F02BFE30B915B05DF804FBFFF7A4
:10049C00AFFEFFF7ADFEFFF7ABFE08B502F0FCFABE
:1004AC00FFF7BAFFFFF754FEFFF7A4FEFFF7D2FEEB
:1004BC00FFF732FFFFF760FFFFF78EFF00F036F912
:1004CC00FEE7FEE7FEE7FEE7FEE7FEE77047704754
:1004DC00704708B502F0F2FA08BD000008B50248F2
:1004EC0001F0FCF808BD00BFF409002008B5024873
:1004FC0003F0B4F808BD00BFB802002082B00E4B68
:10050C009A6942F001029A619A6902F00102009222
:10051C00009ADA6942F08052DA61DB6903F08053A9
:10052C000193019B054A536823F0E06343F0007389
:10053C00536002B0704700BF001002400000014041
:10054C0030B587B00023029303930493059302689C
:10055C001E4B9A4201D007B030BD03F560439A6937
:10056C0042F480529A619A6902F480520092009A85
:10057C009A6942F008029A619B6903F0080301939F
:10058C00019B282302930223039303230593104D0D
:10059C0002A9284602F02EFE102302930024039495
:1005AC00049402A9284602F025FE0A4A536843F037
:1005BC00E06343F00103536022462146232002F0FE
:1005CC00BFFF232002F0CCFFC5E700BF0030014085
:1005DC00000C01400000014000B58BB000230693D5
:1005EC0007930893099303682D4A934208D02D4A28
:1005FC00934220D02C4A934237D00BB05DF804FBC9
:10060C002A4B9A6942F400629A619A6902F4006278
:10061C000092009A9A6942F004029A619B6903F075
:10062C0004030193019B4FF44073069306A92048E1
:10063C0002F0E0FDE1E71D4BDA6942F00202DA61FB
:10064C00DA6902F002020292029A9A6942F00402FA
:10065C009A619B6903F004030393039BC0230693E5
:10066C0006A9134802F0C6FDC7E7104BDA6942F041
:10067C000402DA61DA6902F004020492049A9A69BB
:10068C0042F008029A619B6903F008030593059BED
:10069C00C023069306A9074802F0ACFDADE700BFE6
:1006AC00002C0140000400400008004000100240F3
:1006BC0000080140000C01400368B3F1804F00D0EA
:1006CC00704782B003F50433DA6942F00102DA6153
:1006DC00DB6903F001030193019B02B0704700003A
:1006EC0000B587B00023029303930493059303682A
:1006FC00B3F1804F02D007B05DF804FB03F504336F
:10070C009A6942F004029A619B6903F00403019315
:10071C00019B0723029302230393059302A902482A
:10072C0002F068FDE7E700BF0008014008B50022B1
:10073C000F49104803F015FB70B90F490D4803F031
:10074C0027FB60B90D490B4804F079F950B90948F9
:10075C0003F025FB48B908BDFFF74AFDEDE7FFF7AD
:10076C0047FDEFE7FFF744FDF1E7FFF741FDF2E747
:10077C003400002010030020380100205C00002011
:10078C0012230B80004870472000002004230B80AC
:10079C00004870471C000020002393421ED200B575
:1007AC0010E00CF1370C01F813C000014FEA430CB8
:1007BC000CF1010C4FF0000E01F80CE00133DBB230
:1007CC00934209D24FEA107CB0F1204FE9D20CF1E0
:1007DC00300C01F813C0E8E75DF804FB704700002B
:1007EC0038B50B4BD3F8E807D3F8EC47D3F8F03710
:1007FC00C01800D138BD074D08222946FFF7CCFFA1
:10080C00042205F110012046FFF7C6FFF2E700BFF6
:10081C0000F0FF1F0200002008B51A230B80FFF721
:10082C00DFFF014808BD00BF0000002008B50A46E4
:10083C0028B90549054803F00AFF034808BD0249D9
:10084C00024803F004FFF8E7D4050020944B00089D
:10085C0010B50A46034C2146034803F0F8FE204627
:10086C0010BD00BFD4050020AC4B000808B50A46EB
:10087C0028B90549054803F0EAFE034808BD0249BA
:10088C00024803F0E4FEF8E7D4050020C04B000852
:10089C0008B50A4628B90549054803F0D8FE0348AF
:1008AC0008BD0249024803F0D2FEF8E7D405002047
:1008BC00CC4B0008022805D8DFE800F00504020044
:1008CC00012070470220704702680E4B9A4200D0FC
:1008DC00704700B583B003F5DA33DA6942F40002ED
:1008EC00DA61DB6903F400030193019B00221146DA
:1008FC00142002F025FE142002F032FE03B05DF845
:10090C0004FB00BF005C004008B500F52C71D0F86A
:10091C00EC0203F05CFA08BD08B501EB810300EBB7
:10092C00C303D3F87C21D0F8EC0203F07DFA08BDA8
:10093C0008B501EB810300EBC303DA6BD0F8EC02D2
:10094C0003F0B8FA08BD08B5D0F8EC0203F059FB77
:10095C0008BD10B504468368022B09D10121D4F8D7
:10096C00EC0203F037FBD4F8EC0203F00BFB10BDE8
:10097C00FFF73EFCF2E7000010B50446D0F8EC029D
:10098C0003F02BFBA36923B1024A136943F006035E
:10099C00136110BD00ED00E008B5D0F8EC0203F0D7
:1009AC0025FB08BD10B504461D48C0F8EC42C4F840
:1009BC00C0021C4B036008234360022383600023A6
:1009CC008361C361036200F023F930BB182300225A
:1009DC001146D4F8C00201F088F858230022802177
:1009EC00D4F8C00201F081F8C02300228121D4F890
:1009FC00C00201F07AF84FF4887300220121D4F878
:100A0C00C00201F072F84FF4807300228221D4F8F6
:100A1C00C00201F06AF8002010BDFFF7E9FBD5E732
:100A2C00F4090020005C004008B5D0F8C00200F0CA
:100A3C0077F9FFF73FFF08BD08B594461A466346A1
:100A4C00D0F8C00200F022FFFFF734FF08BD08B554
:100A5C00D0F8C00200F058FFFFF72CFF08BD08B516
:100A6C00D0F8C00200F0CAFFFFF724FF08BD08B59C
:100A7C00D0F8C00200F0FEFFFFF71CFF08BDD0F855
:100A8C00C03211F0800F08D101F07F0101EB810120
:100A9C0003EBC10393F86A01704701F07F01013148
:100AAC0001EB810103EBC1039878704708B5D0F8CE
:100ABC00C00200F0FFFDFFF7FDFE08BD08B5D0F841
:100ACC00C00200F079FFFFF7F5FE08BD08B5D0F8BD
:100ADC00C00200F04BFFFFF7EDFE08BD08B5D0F8E3
:100AEC00C00200F060FF08BD00487047D40700202A
:100AFC007047704738B512F4804F44D00468B4F88E
:100B0C0050309BB291F800C003EBCC03023304EBE2
:100B1C004304B4F80044C4F309048B69A34228D3FA
:100B2C001B1B8B618B697BB9056835F82C309BB22C
:100B3C0023F4804323F0700383F4005343F4004305
:100B4C0043F0800325F82C3012F0400F0ED00268D1
:100B5C000D7832F825309BB223F4E04323F0700378
:100B6C0043F4004343F0C00322F8253024B9204657
:100B7C0038BD00238B61D5E723460A894969006893
:100B8C0001F04CFFF3E70468B4F850309BB291F8D5
:100B9C0000C003EBCC03063304EB4304B4F800446D
:100BAC00C4F309048B69A3422FD31B1B8B618B6984
:100BBC007BB9056835F82C309BB223F4804323F0C5
:100BCC00700383F4005343F4004343F0800325F88F
:100BDC002C3012F0400F0FD1026891F800C032F89F
:100BEC002C309BB223F4E04323F0700343F4004316
:100BFC0043F0C00322F82C30002CB8D023464A898D
:100C0C004969006801F00AFFB1E700238B61CEE768
:100C1C0070B586B0002800F08180044690F8A932A7
:100C2C00EBB1032384F8A932206800F08AFF254633
:100C3C0055F8106BEC460FCDACE80F002B68CCF8D8
:100C4C000030231D0ECB304600F06BFF054658B12B
:100C5C00022384F8A9320125284606B070BD80F81D
:100C6C00A832FFF731FEDCE70021206800F073FFAB
:100C7C002B4616E05A1C02EB820104EBC101012049
:100C8C00487002EB820104F8313004EBC100002102
:100C9C00C17003EB830004EBC0008163C16301648A
:100CAC00D3B261688B42E5D316E005EB850304EB08
:100CBC00C303002283F8692183F8685183F86B2100
:100CCC00C3F87821C3F87C2105EB850304EBC3033F
:100CDC00C3F880210135EDB2A942E6D8254655F876
:100CEC00106BEC460FCDACE80F002B68CCF8003045
:100CFC00231D0ECB304600F030FF054620B10223F9
:100D0C0084F8A9320125A7E7002384F824300123B5
:100D1C0084F8A932206801F07FFA9DE701259BE752
:100D2C0038B590F8A832012B11D00446012580F873
:100D3C00A852006800F0FCFE29462046FFF7D9FEB9
:100D4C00206801F067FA002084F8A80238BD022060
:100D5C00FCE770B505460C46164612F0400F00F045
:100D6C000E810268B2F850309BB2097803EBC103D4
:100D7C00023302EB4302B2F80024C2F30902A36966
:100D8C0093424ED99B1AA361A369002B66D1637859
:100D9C00002B49D12B68B3F8502092B2134403EBCB
:100DAC000113B3F80424C2F30902A3F80424B3F822
:100DBC0004246FEA42426FEA524292B2A3F804242E
:100DCC002B686278002A3CD1B3F8502092B21344BD
:100DDC00227803EB0213B3F80C24C2F30902A3F834
:100DEC000C24B3F80C246FEA42426FEA524292B2DE
:100DFC00A3F80C2421782846FFF79AFD16F4804FAF
:100E0C0041D02A68217832F821309BB223F4E04398
:100E1C0023F0700343F4404343F0800322F8213065
:100E2C0031E00023A361AFE7012BC9D12B68B3F8E4
:100E3C00502092B2134403EB01130022A3F80424B4
:100E4C00BEE7012AD6D1B3F8502092B213442278CF
:100E5C0003EB02130022A3F80C24CBE716F4804F0B
:100E6C000DD0286830F821309BB223F4E04323F0F6
:100E7C00700343F4404343F0800320F8213094F88E
:100E8C002430012B12D02A68217832F821309BB201
:100E9C0023F4E04323F0400383F0300343F4004396
:100EAC0043F0800322F82130002070BD63691344A5
:100EBC006361E3691344E361216A2369994224D392
:100ECC00C91A21626278002A44D12A68B2F85010FB
:100EDC0089B20A44217802EB0112B2F80414C1F36E
:100EEC000901A2F804143E2B1BD9580913F01F0F4B
:100EFC0000D10138B2F8041489B2800280B20143E7
:100F0C0041F40041A2F8041426E021B9002384F82E
:100F1C0024301346D6E7002384F8243023620B4692
:100F2C00D0E74BB9B2F804146FEA41416FEA514172
:100F3C0089B2A2F804140FE0590813F0010F00D085
:100F4C000131B2F8040480B2890289B20143A2F8DB
:100F5C00041401E0012A06D09BB222896169286839
:100F6C0001F062F98FE72A68B2F8501089B20A448E
:100F7C00217802EB011299B2A2F80414ECE7026892
:100F8C00B2F850309BB2097803EBC103063302EB85
:100F9C004302B2F80024C2F30902A36993424FD36F
:100FAC009B1AA361A369002B67D16378002B4AD1EC
:100FBC002B68B3F8502092B2134403EB0113B3F82F
:100FCC000424C2F30902A3F80424B3F804246FEA3E
:100FDC0042426FEA524292B2A3F804242B68627820
:100FEC00002A3DD1B3F8502092B21344227803EB7F
:100FFC000213B3F80C24C2F30902A3F80C24B3F8BF
:10100C000C246FEA42426FEA524292B2A3F80C24CB
:10101C0021782846FFF78CFC16F4804F7FF433AF11
:10102C002A68217832F821309BB223F4E04323F074
:10103C00700343F4404343F0800322F8213022E74D
:10104C000023A361AEE7012BC8D12B68B3F8502065
:10105C0092B2134403EB01130022A3F80424BDE75E
:10106C00012AD5D1B3F8502092B21344227803EB65
:10107C0002130022A3F80C24CAE716F4804F0DD1FA
:10108C00286830F821309BB223F4E04323F070033E
:10109C0043F4404343F0800320F8213094F824308B
:1010AC00012B7FF4F0AE636913446361E36913446D
:1010BC00E361216A2369994224D3C91A21622A68FF
:1010CC006178002943D1B2F8501089B20A442178D2
:1010DC0002EB0112B2F80C14C1F30901A2F80C14C2
:1010EC003E2B1BD9580913F01F0F00D10138B2F851
:1010FC000C1489B2800280B2014341F40041A2F881
:10110C000C1426E021B9002384F824301346D6E7CA
:10111C000023236284F824300B46D0E74BB9B2F895
:10112C000C146FEA41416FEA514189B2A2F80C14D8
:10113C000FE0590813F0010F00D00131B2F80C0484
:10114C0080B2890289B20143A2F80C1401E0012992
:10115C0006D09BB262896169286801F065F892E655
:10116C00B2F8501089B20A44217802EB011299B2FC
:10117C00A2F80C14EDE72DE9F04105462868B0F80B
:10118C00443013F4004F00F09282B0F84440A3B204
:10119C0014F00F0440F0E28013F0100F6BD00388B2
:1011AC009AB213F4006F40F09D8012F4004FE5D01A
:1011BC00038823F070031B051B0D43F08003038091
:1011CC002868B0F850309BB295F8682103EBC20345
:1011DC00063300EB4303B3F80034C3F30903C5F83B
:1011EC0084318BB1D5F87C1171B1B5F86E2101F059
:1011FC0015FCD5F87C31D5F884211344C5F87C3125
:10120C0000212846FFF788FB2A68138899B213F44B
:10121C00006FB3D101F44051B1F5405FAED0B2F8DC
:10122C0050309BB21A44B2F80C34C3F30903A2F841
:10123C000C34D5F878313E2B77D9590913F01F0FA0
:10124C0000D10139B2F80C349BB2890289B20B433C
:10125C0043F40043A2F80C342A6813889BB223F49D
:10126C00804323F0700383F4405343F4004343F072
:10127C008003138082E703889BB223F4E14323F0BD
:10128C0070036FEA43436FEA53439BB203802A68AF
:10129C00B2F850309BB295F8281003EBC10302331F
:1012AC0002EB4302B2F80034C3F309036B64EA6B3C
:1012BC001A44EA6300212846FFF73AFB95F82430DC
:1012CC00002B3FF45BAF2B6C002B7FF457AF95F8E2
:1012DC0024302A6843F08003A2F84C30002385F8B0
:1012EC0024304BE7B0F850309BB295F8682103EBF3
:1012FC00C203063300EB4303B3F80034C3F3090312
:10130C00C5F88431B5F86E2105F52C7101F086FB1A
:10131C002A68138823F070031B051B0D43F0800310
:10132C0013802846FFF7F0FA28E74BB9B2F80C34D3
:10133C006FEA43436FEA53439BB2A2F80C348BE73A
:10134C00590813F0010F00D00131B2F80C3498B2E7
:10135C008B029BB20343A2F80C347DE730F82430A7
:10136C009EB213F4004F4CD116F0800F3FF406AF31
:10137C00621C02EB820105EBC101286830F82430B5
:10138C009BB223F4E14323F070036FEA43436FEA0B
:10139C0053439BB220F82430CB78012B00F0F28021
:1013AC0016F4807F40F07E812868B0F850309BB2F4
:1013BC00621C02EB820215F8326003EBC6030233A7
:1013CC0000EB4303B3F80034C3F3090304EB8402CA
:1013DC0005EBC202126C9A4240F24C8104EB84077A
:1013EC0005EBC707D21A3A6404EB840205EBC20280
:1013FC00126C002A40F0458131462846FFF798FAD6
:10140C00BCE630F8243023F070031B051B0D43F0B1
:10141C00800320F8243004EB8401C90001F5B47179
:10142C0005EB010804EB840305EBC30393F874315B
:10143C00002B42D12868B0F850309BB204EB8402E8
:10144C0005EBC20292F8682103EBC203063300EBF2
:10145C004303B3F80074C7F3090717BB04EB840309
:10146C0005EBC303D3F884213A44C3F88421D3F8A1
:10147C007C213A44C3F87C21D3F880313BB104EB96
:10148C00840305EBC303D3F878319F4275D204EB88
:10149C00840305EBC30393F868112846FFF73CFA65
:1014AC0062E704EB840105EBC1013B46B1F86E2108
:1014BC00D1F87C1101F0B2FAD0E704EB840305EB10
:1014CC00C30393F86B31022B35D0296804EB8402EB
:1014DC0005EBC20292F8680131F820309BB223F47C
:1014EC00E04323F0700343F4004343F0C00321F8BE
:1014FC002030286892F8682130F8223013F4804F9D
:10150C0020D0B0F850309BB203EBC203023300EB97
:10151C004303B3F80074C7F30907002F9ED004EB04
:10152C00840105EBC1013B46B1F87021D1F87C1167
:10153C0001F074FA92E7324641462846FFF7DAFA90
:10154C0007468BE7B0F850309BB203EBC20306336F
:10155C0000EB4303B3F80074C7F30907002F3FF403
:10156C007DAF04EB840105EBC1013B46B1F8722160
:10157C00D1F87C1101F052FA70E74146286800F06E
:10158C0066FEF1E604EB840305EBC30300221A6448
:10159C0093F83430FBB116F0400F37D04B781BBBAF
:1015AC002B68B3F8502092B21344621C02EB8202F7
:1015BC0015F8322003EB0213B3F80424C2F309022A
:1015CC00A3F80424B3F804246FEA42426FEA5242AF
:1015DC0092B2A3F80424013404EB840415F83410FB
:1015EC002846FFF7A5F9C9E5012BF4D12B68B3F810
:1015FC00502092B21344621C02EB820215F8322086
:10160C0003EB02130022A3F80424E4E72A68631C0A
:10161C0003EB830305EBC3035B78D3B9B2F850300B
:10162C009BB21344621C02EB820215F8322003EBCE
:10163C000213B3F80C24C2F30902A3F80C24B3F878
:10164C000C246FEA42426FEA524292B2A3F80C2485
:10165C00C1E7012BBFD1B2F850309BB21344621CCE
:10166C0002EB820215F8322003EB02130022A3F8DE
:10167C000C24B0E704EB840205EBC20200271764CC
:10168C00B2E604EB840205EBC202D66B1E44D663B1
:10169C00526C04EB840405EBC4041344636400F043
:1016AC00D6FD6BE532462846FFF753FB66E5002076
:1016BC00BDE8F08190F8A832012B0DD010B504468E
:1016CC00012380F8A83280F82410006800F09CFDFB
:1016DC00002084F8A80210BD0220704710B584B019
:1016EC000446006800F09AFD10F4004F20D110F46D
:1016FC00806F21D110F4804F2FD110F4005F37D1BF
:10170C0010F4805F3ED110F4006F40F0878010F42D
:10171C00007F40F0AE8010F4807F27D02268B2F8B2
:10172C0044309BB223F480739BB2A2F844301DE08A
:10173C002046FFF720FD19E02268B2F844309BB236
:10174C0023F480639BB2A2F844302046FFF701F9E2
:10175C0000212046FFF7AEFF08E02268B2F84430C3
:10176C009BB223F480439BB2A2F8443004B010BD6A
:10177C002268B2F844309BB223F400539BB2A2F817
:10178C004430F3E72268B2F840309BB223F00403F4
:10179C009BB2A2F840302268B2F840309BB223F0E2
:1017AC0008039BB2A2F840302046FFF7F5F82268F8
:1017BC00B2F844309BB223F480539BB2A2F844306D
:1017CC00D4E7226832F8231004AA02EB430222F871
:1017DC00101C0133DBB2072BF3D92268B2F840306E
:1017EC009BB243F00103A2F840302268B2F84030BB
:1017FC009BB223F001039BB2A2F840302368B3F8EC
:10180C00442012F4806FF9D0B3F8442092B222F441
:10181C00806292B2A3F8442000230BE00023DAE7A5
:10182C00226804A901EB430131F8101C22F82310A3
:10183C000133DBB2072BF3D92268B2F840309BB2EC
:10184C0043F00803A2F840302268B2F844309BB24F
:10185C0023F400639BB2A2F844302268B2F8403003
:10186C009BB243F00403A2F840302046FFF784F803
:10187C007CE72268B2F844309BB223F400739BB22D
:10188C00A2F844302046FFF75EF86FE710B5044627
:10189C00084611F0800F25D101F0070C0CEB8C01E0
:1018AC00C90001F5B47E04EB0E010CEB8C0C04EBBF
:1018BC00CC0C4FF0000E8CF869E100F007000870BA
:1018CC000A61CB70022B1AD094F8A832012B19D0D4
:1018DC00012384F8A832206800F050F9002084F825
:1018EC00A80210BD01F0070C0CF1010C0CEB8C01E3
:1018FC0004EBC1014FF0010E81F801E0DDE700239C
:10190C000B71E1E70220ECE710B504460B4611F031
:10191C00800F1FD101F0070202EB8201C90001F513
:10192C00B471014402EB820200EBC202002082F887
:10193C00690103F007030B7094F8A832012B13D044
:10194C00012384F8A832206800F0FDFA002084F806
:10195C00A80210BD01F00702013202EB820100EB7C
:10196C00C10101204870E4E70220F2E710B501F054
:10197C00070C0CEB8C01C90001F5B4710CEB8C0E4F
:10198C0000EBCE0ECEF87C21CEF880310024CEF8C0
:10199C0084418EF869418EF868C10144006800F0FA
:1019AC0056FC204610BD01F0070101EB810100EB54
:1019BC00C100D0F88401704738B501F0070404F178
:1019CC00010C0CEB8C0104EB840E00EBCE0ECEF86C
:1019DC003C20CEF8403001228EF84C20CEF8483016
:1019EC000025CEF8445000EBC1035A7000F831408A
:1019FC001946006800F02BFC284638BD38B501F0BC
:101A0C0007054268954231D804460B4611F0800F09
:101A1C001ED101EB8101C90001F5B471014403EB46
:101A2C00830300EBC303002283F8692101238B702D
:101A3C000D7094F8A832012B1AD0012384F8A83227
:101A4C00206800F06BFB5DB1002084F8A80238BD63
:101A5C006B1C03EB830100EBC10101224A70E5E72B
:101A6C0004F52C71206800F0DDFBEDE70120EEE7BA
:101A7C000220ECE70B4601F00F014268914230D88E
:101A8C0010B5044613F0800F21D103F0070202EBCE
:101A9C008201C90001F5B471014402EB820200EB32
:101AAC00C202002082F8690100228A7003F0070349
:101ABC000B7094F8A832012B15D0012384F8A832AE
:101ACC00206800F050FB002084F8A80210BD03F041
:101ADC000702013202EB820100EBC10101204870C8
:101AEC00E2E7012070470220F0E711F0800F0BD0E5
:101AFC0001F00701013101EB810100EBC10052B98A
:101B0C000273C3800020704701EB8101C90001F50D
:101B1C00B4710844F3E70122027303811B0C438167
:101B2C00F0E784B001A880E80E00002004B07047F4
:101B3C0003460020A3F844004FF43F42A3F8402092
:101B4C007047B0F8403023F47C535B045B0CA0F876
:101B5C004030002070470020704784B0844601A8B4
:101B6C0080E80E000123ACF840300020ACF84000B7
:101B7C00ACF84400ACF8500004B0704710B5034604
:101B8C0091F800C030F82C2092B222F4EC4222F0F2
:101B9C00700292B2C878032861D8DFE800F0555C77
:101BAC000258002048F2800E42EA0E0223F82C2044
:101BBC0091F800C033F82C2092B222F4E04222F0CB
:101BCC00700242EA0C0242EA0E0223F82C200A7B35
:101BDC00002A40F0DC804A78002A51D0B3F850201B
:101BEC0092B21A440C7802EB0412B1F806C04FEA18
:101BFC005C0C4FEA4C0CA2F800C40C7833F824208F
:101C0C0012F0400F0CD033F8242092B222F4E042B0
:101C1C0022F0700242F4004242F0C00223F8242069
:101C2C00CA78012A1DD0097833F8212092B222F407
:101C3C00E04222F0400282F0200242F4004242F0E4
:101C4C00800223F8212017E142F40072AAE742F443
:101C5C00C0620020A6E742F480620020A2E70120C7
:101C6C00A0E7097833F8212092B222F4E04222F066
:101C7C00400242F4004242F0800223F82120FBE0B3
:101C8C00B3F8502092B21A440C7802EB0412B1F85B
:101C9C0006C04FEA5C0C4FEA4C0CA2F808C4B3F82F
:101CAC00502092B21A440C7802EB0412B2F80CC415
:101CBC00CCF3090CA2F80CC40C693E2C39D94FEAB0
:101CCC00541E14F01F0F01D10EF1FF3EB2F80CC4DC
:101CDC001FFA8CFC4FEA8E2E1FFA8EFE4CEA0E0C6D
:101CEC004CF4004CA2F80CC40C7833F8242012F4F9
:101CFC00804F0CD033F8242092B222F4E04222F030
:101D0C00700242F4404242F0800223F82420097809
:101D1C0069BB33F8212092B222F4804222F0700287
:101D2C0082F4405242F4004242F0800223F8212017
:101D3C00A2E04CB9B2F80C446FEA44446FEA544444
:101D4C00A4B2A2F80C44CFE74FEA540C14F0010FE4
:101D5C0001D00CF1010CB2F80C44A4B24FEA8C2C5B
:101D6C001FFA8CFC44EA0C04A2F80C44BCE733F8D0
:101D7C00212092B222F4804222F0700282F40052AE
:101D8C0042F4004242F0800223F8212074E0CA7829
:101D9C00022A72D00C7833F8242092B222F4E24258
:101DAC0022F0700242F4004242F0800223F8242018
:101DBC00B3F8502092B21A4491F800C002EB0C1206
:101DCC00B1F808C04FEA5C0C4FEA4C0CA2F800C406
:101DDC00B3F8502092B21A4491F800C002EB0C12E6
:101DEC00B1F80AC04FEA5C0C4FEA4C0CA2F808C4DC
:101DFC004A78002A50D10C7833F8242012F4804F02
:101E0C000CD033F8242092B222F4E04222F070027B
:101E1C0042F4404242F0800223F824200C7833F83C
:101E2C00242012F0400F0CD033F8242092B222F46C
:101E3C00E04222F0700242F4004242F0C00223F869
:101E4C00242091F800C033F82C2092B222F4804266
:101E5C0022F0700282F4405248F28004224323F8AC
:101E6C002C20097833F8212092B222F4E04222F09F
:101E7C004002224323F8212010BD0C7833F8242093
:101E8C0092B222F4E04222F0700242F4014242F09B
:101E9C00800223F824208BE70C7833F8242012F4EA
:101EAC00804F0CD033F8242092B222F4E04222F07E
:101EBC00700242F4404242F0800223F824200C7855
:101ECC0033F8242012F0400F0CD033F8242092B2B7
:101EDC0022F4E04222F0700242F4004242F0C002CE
:101EEC0023F82420CA78012A1ED00C7833F8242039
:101EFC0092B222F4E04222F0400282F0200242F43C
:101F0C00004242F0800223F82420097833F8212083
:101F1C0092B222F4804222F0700242F4004242F06B
:101F2C00800223F82120A7E70C7833F8242092B202
:101F3C0022F4E04222F0400242F4004242F08002DD
:101F4C0023F82420E1E70B7B002B46D14B7813B30D
:101F5C000A7830F8223013F0400F0CD030F82230D1
:101F6C009BB223F4E04323F0700343F4004343F0AB
:101F7C00C00320F822300A7830F822309BB223F4C8
:101F8C00E04323F0400343F4004343F0800320F884
:101F9C002230002070470A7830F8223013F4804F3A
:101FAC000CD030F822309BB223F4E04323F07003C2
:101FBC0043F4404343F0800320F822300A7830F891
:101FCC0022309BB223F4804323F0700343F400438C
:101FDC0043F0800320F82230DBE74B78002B4ED106
:101FEC000A7830F8223013F4804F0CD030F82230BD
:101FFC009BB223F4E04323F0700343F4404343F0DB
:10200C00800320F822300A7830F8223013F0400F89
:10201C000CD030F822309BB223F4E04323F0700351
:10202C0043F4004343F0C00320F822300A7830F820
:10203C0022309BB223F4E04323F0700343F40043BB
:10204C0043F0C00320F822300A7830F822309BB2DB
:10205C0023F4804323F0700348F2800C43EA0C0312
:10206C0020F822300A7830F822309BB223F4E04377
:10207C0023F0400343EA0C0320F8223089E70A7866
:10208C0030F8223013F4804F0CD030F822309BB251
:10209C0023F4E04323F0700343F4404343F0800304
:1020AC0020F822300A7830F8223013F0400F0CD090
:1020BC0030F822309BB223F4E04323F0700343F456
:1020CC00004343F0C00320F822300A7830F8223065
:1020DC009BB223F4E04323F0700343F4404343F0FA
:1020EC00800320F822300A7830F822309BB223F497
:1020FC00E04323F0400348F2800C43EA0C0320F841
:10210C0022300A7830F822309BB223F4804323F03B
:10211C00700343EA0C0320F822303AE74B788BB17A
:10212C000A7830F822309BB223F4E04323F04003CA
:10213C0083F0100343F4004343F0800320F8223073
:10214C00002070470A7830F822309BB223F4804389
:10215C0023F0700383F4805343F4004343F0800373
:10216C0020F82230ECE70B7B002B4BD14B7833B3B0
:10217C000A7830F8223013F0400F0CD030F82230AF
:10218C009BB223F4E04323F0700343F4004343F089
:10219C00C00320F82230CB78012B33D00A7830F8EA
:1021AC0022309BB223F4E04323F0400383F020035E
:1021BC0043F4004343F0800320F8223022E00A78F5
:1021CC0030F8223013F4804F0CD030F822309BB210
:1021DC0023F4E04323F0700343F4404343F08003C3
:1021EC0020F822300A7830F822309BB223F4804356
:1021FC0023F0700383F4405343F4004343F0800313
:10220C0020F822300020704711B98023A0F84C3000
:10221C00002070470020704700207047B0F8440041
:10222C0080B270470020704701335B0800EB42001E
:10223C0000F5806008E00A7891F801C042EA0C22AF
:10224C0020F8042B0231013B002BF4D1704770B500
:10225C0005460C464A78012A3BD00B7B002B40F0FC
:10226C00A6828B690A69934240F284829B1A8B6125
:10227C00B5F850309BB22B44217803EB0113B3F823
:10228C000C14C1F30901A3F80C143E2A40F2768217
:10229C00510912F01F0F00D10139B3F80C2492B27E
:1022AC00890289B20A4342F40042A3F80C24227832
:1022BC0035F822309BB223F4804323F0700383F46F
:1022CC00405343F4004343F0800325F822300020B0
:1022DC0070BD8E6909698E4200D90E46237B73B39B
:1022EC00E378022B4DD0236A9B1B2362217835F8AF
:1022FC00213013F0400F00F0F581002A40F0E2810C
:10230C00B5F850309BB22B4403EB0113B3F80C24FB
:10231C00C2F30902A3F80C243E2E40F2BA817109D3
:10232C0016F01F0F00D10139B3F80C2492B28902B8
:10233C0089B20A4342F40042A3F80C24CBE1B6B2B2
:10234C003346E28861692846FFF76EFFB5F85030D6
:10235C009BB22B44227803EB0213A3F8046422787B
:10236C0035F822309BB223F4E04323F0400383F092
:10237C00300343F4004343F0800325F8223000205F
:10238C00A6E7236A994280F06681227835F82230DC
:10239C009BB223F4E04323F0700343F4014343F076
:1023AC00800325F82230236A9B1B2362227835F8A0
:1023BC00223013F0400F00F0A7806378B3BBB5F860
:1023CC0050309BB22B4403EB0213B3F80C24C2F332
:1023DC000902A3F80C243E2E0FD9710916F01F0F19
:1023EC0000D10139B3F80C2492B2890289B20A43A4
:1023FC0042F40042A3F80C241AE04EB9B3F80C24B2
:10240C006FEA42426FEA524292B2A3F80C240FE0F8
:10241C00720816F0010F00D00132B3F80C1489B217
:10242C00920292B20A43A3F80C2401E0012B30D0A3
:10243C00B3B2628961692846FFF7F6FE63693344DB
:10244C006361236A226993422DD99B1B23626378B3
:10245C00002B45D1B5F850309BB22B44227803EBBE
:10246C000213B3F80424C2F30902A3F804243E2E89
:10247C001DD9710916F01F0F00D10139B3F80424CE
:10248C0092B2890289B20A4342F40042A3F80424AE
:10249C0028E0B5F850309BB22B4403EB0213B2B2D8
:1024AC00A3F80C24C4E7002222621E46CFE74EB9E3
:1024BC00B3F804246FEA42426FEA524292B2A3F894
:1024CC0004240FE0720816F0010F00D00132B3F8AB
:1024DC00041489B2920292B20A43A3F8042401E0D4
:1024EC00012B06D0B3B2228961692846FFF79CFE06
:1024FC0035E7B5F850309BB22B44227803EB02132E
:10250C00B2B2A3F80424EDE76378B3BBB5F850304E
:10251C009BB22B4403EB0213B3F80424C2F309025D
:10252C00A3F804243E2E0FD9710916F01F0F00D109
:10253C000139B3F8042492B2890289B20A4342F4F5
:10254C000042A3F804241AE04EB9B3F804246FEA4D
:10255C0042426FEA524292B2A3F804240FE072088E
:10256C0016F0010F00D00132B3F8041489B29202B4
:10257C0092B20A43A3F8042401E0012B30D0B3B289
:10258C00228961692846FFF74FFE63693344636112
:10259C00236A226993422DD99B1B23626378002BFB
:1025AC0045D1B5F850309BB22B44227803EB021383
:1025BC00B3F80C24C2F30902A3F80C243E2E1DD947
:1025CC00710916F01F0F00D10139B3F80C2492B227
:1025DC00890289B20A4342F40042A3F80C2428E091
:1025EC00B5F850309BB22B4403EB0213B2B2A3F8F4
:1025FC000424C4E7002222621E46CFE74EB9B3F88A
:10260C000C246FEA42426FEA524292B2A3F80C24B5
:10261C000FE0720816F0010F00D00132B3F80C1461
:10262C0089B2920292B20A43A3F80C2401E0012B66
:10263C0006D0B3B2628961692846FFF7F5FD8EE6D4
:10264C00B5F850309BB22B44227803EB0213B2B294
:10265C00A3F80C24EDE7217835F8212092B222F46E
:10266C00E24222F0700242F4004242F0800225F86D
:10267C002120B5F8502092B22A44217802EB0112A5
:10268C009BB2A2F80434228961692846FFF7CCFD7D
:10269C0065E64EB9B3F80C246FEA42426FEA524237
:1026AC0092B2A3F80C2416E0720816F0010F00D0B9
:1026BC000132B3F80C1489B2920292B20A43A3F815
:1026CC000C2408E0B5F850309BB22B4403EB0113FB
:1026DC00B2B2A3F80C24B3B2628961692846FFF741
:1026EC00A3FD3CE6B2BBB5F850309BB22B4403EBD8
:1026FC000113B3F80424C2F30902A3F804243E2EF8
:10270C000FD9710916F01F0F00D10139B3F8042449
:10271C0092B2890289B20A4342F40042A3F804241B
:10272C0021E04EB9B3F804246FEA42426FEA5242F8
:10273C0092B2A3F8042416E0720816F0010F00D030
:10274C000132B3F8041489B2920292B20A43A3F88C
:10275C00042408E0B5F850309BB22B4403EB011372
:10276C00B2B2A3F80424B3B2228961692846FFF7F8
:10277C005BFDF4E500228A611A4679E54AB9B3F8A3
:10278C000C246FEA42426FEA524292B2A3F80C2434
:10279C008DE5510812F0010F00D00131B3F80C2473
:1027AC0092B2890289B20A43A3F80C247FE5CB7854
:1027BC00022B4DD0012B40F02F818969236999425E
:1027CC0040F2E680C91AA161F2B9B5F8502092B274
:1027DC002A44217802EB0112B2F80414C1F3090166
:1027EC00A2F804143E2B40F2D780580913F01F0FA7
:1027FC0000D10138B2F8041489B2800280B20143CE
:10280C0041F40041A2F804146278002A40F0F680EA
:10281C00B5F8502092B22A44217802EB0112B2F89A
:10282C000C14C1F30901A2F80C143E2B40F2CD801C
:10283C00590913F01F0F00D10139B2F80C349BB2B7
:10284C00890289B20B4343F40043A2F80C342EE501
:10285C00F2B9B0F850309BB203440A7803EB021380
:10286C00B3F80424C2F30902A3F804240A693E2A2B
:10287C0031D9510912F01F0F00D10139B3F80424DA
:10288C0092B2890289B20A4342F40042A3F80424AA
:10289C006378002B51D1B5F850309BB22B44227881
:1028AC0003EB0213B3F80C24C2F30902A3F80C24B3
:1028BC0022693E2A28D9510912F01F0F00D1013983
:1028CC00B3F80C2492B2890289B20A4342F4004252
:1028DC00A3F80C2433E04AB9B3F804246FEA42425B
:1028EC006FEA524292B2A3F80424D1E7510812F0D5
:1028FC00010F00D00131B3F8042490B28A0292B2D5
:10290C000243A3F80424C3E74AB9B3F80C246FEAD2
:10291C0042426FEA524292B2A3F80C240FE05108E3
:10292C0012F0010F00D00131B3F80C2490B28A02DE
:10293C0092B20243A3F80C2401E0012B1DD0E369F1
:10294C00002B3FF4B4AC227835F8221044F240034B
:10295C0003EA01008B4302D000287FF4A8AC35F8C1
:10296C0022309BB223F4E04323F0700343F4004382
:10297C0043F0C00325F8223099E4B5F850309BB2EF
:10298C002B44227803EB0213228AA3F80C24D6E7FB
:10299C000023A3610B4617E74BB9B2F804146FEA96
:1029AC0041416FEA514189B2A2F804142CE759084D
:1029BC0013F0010F00D00131B2F8040480B2890287
:1029CC0089B20143A2F804141EE74BB9B2F80C34D7
:1029DC006FEA43436FEA53439BB2A2F80C3466E4AC
:1029EC00590813F0010F00D00131B2F80C3498B231
:1029FC008B029BB20343A2F80C3458E4012A7FF4F7
:102A0C0056ACB5F8502092B22A44217802EB011250
:102A1C009BB2A2F80C344AE4012059E410B45C08CF
:102A2C0000EB420000F5806007E030F8042B0A70E0
:102A3C00C2F307224A700231013C002CF5D113F08D
:102A4C00010F01D003880B7010BC704710B5044601
:102A5C000E4B1A784FF47A73B3FBF2F30C4A1068EE
:102A6C00B0FBF3F000F08AFD68B90F2C01D90120FE
:102A7C000AE0002221464FF0FF3000F061FD054BCB
:102A8C001C60002000E0012010BD00BF50000020A1
:102A9C00580000205400002008B5074A136843F082
:102AAC0010031360032000F039FD0F20FFF7CEFF59
:102ABC00FDF724FD002008BD00200240034A1168E8
:102ACC00034B1B780B441360704700BFE40C0020D1
:102ADC0050000020014B1868704700BFE40C002028
:102AEC0082B0084B1B68084AA2FB03235B0A00FB5D
:102AFC0003F3019300BF019B5A1E0192002BF9D1E5
:102B0C0002B0704758000020D34D6210002800F02E
:102B1C00F18170B582B00446036813F0010F2CD01C
:102B2C00994B5B6803F00C03042B1DD0964B5B6830
:102B3C0003F00C03082B12D06368B3F5803F41D02F
:102B4C00002B55D103F1804303F504331A6822F4AA
:102B5C0080321A601A6822F480221A6037E08A4B9D
:102B6C005B6813F4803FE7D0874B1B6813F4003F7E
:102B7C0003D06368002B00F0BF81236813F0020FB1
:102B8C0075D0814B5B6813F00C0F5FD07E4B5B688C
:102B9C0003F00C03082B54D02369002B00F08A801F
:102BAC007A4B01221A60FFF795FF0546764B1B689E
:102BBC0013F0020F75D1FFF78DFF401B0228F5D9DA
:102BCC0003209EE1704A136843F4803313606368FA
:102BDC0043B3FFF77FFF05466B4B1B6813F4003FB5
:102BEC00CBD1FFF777FF401B6428F5D9032088E190
:102BFC00B3F5A02F09D0644B1A6822F480321A6006
:102C0C001A6822F480221A60E1E703F18043A3F5ED
:102C1C003C331A6842F480221A601A6842F48032FB
:102C2C001A60D4E7FFF756FF0546574B1B6813F4A1
:102C3C00003FA2D0FFF74EFF401B6428F5D90320BC
:102C4C005FE1514B5B6813F4803FA5D14E4B1B6881
:102C5C0013F0020F03D02369012B40F04F814A4A35
:102C6C00136823F0F803616943EAC1031360236816
:102C7C0013F0080F33D0A369002B5CD0434B012217
:102C8C00C3F88024FFF726FF05463F4B5B6A13F021
:102C9C00020F21D1FFF71EFF401B0228F5D903209C
:102CAC002FE1394A136823F0F803616943EAC10341
:102CBC001360DCE7354B00221A60FFF70BFF05466B
:102CCC00314B1B6813F0020FD1D0FFF703FF401BF1
:102CDC000228F5D9032014E10120FFF701FF236836
:102CEC0013F0040F00F09680274BDB6913F0805F24
:102CFC0034D1254BDA6942F08052DA61DB6903F09A
:102D0C0080530193019B0125214B1B6813F4807F99
:102D1C0026D0E368012B3DD0002B53D103F1804327
:102D2C0003F504331A6A22F001021A621A6A22F0BD
:102D3C0004021A6233E0154B0022C3F88024FFF71B
:102D4C00C9FE0546104B5B6A13F0020FC7D0FFF7A4
:102D5C00C1FE401B0228F5D90320D2E00025D3E7A1
:102D6C000B4A136843F480731360FFF7B3FE0646F7
:102D7C00074B1B6813F4807FCBD1FFF7ABFE801B96
:102D8C006428F5D90320BCE0001002400000424248
:102D9C00007000405F4A136A43F001031362E3685A
:102DAC0033B3FFF797FE06465A4B1B6A13F0020F1C
:102DBC002FD1FFF78FFE801B41F288339842F3D955
:102DCC0003209EE0052B09D0524B1A6A22F0010217
:102DDC001A621A6A22F004021A62E0E74D4B1A6A70
:102DEC0042F004021A621A6A42F001021A62D6E731
:102DFC00FFF770FE0646474B1B6A13F0020F08D014
:102E0C00FFF768FE801B41F288339842F3D9032008
:102E1C0077E0E5B9E369002B72D03E4A526802F0C4
:102E2C000C02082A56D0022B17D03B4B00221A66F4
:102E3C00FFF750FE0446374B1B6813F0007F47D05A
:102E4C00FFF748FE001B0228F5D9032059E0314A50
:102E5C00D36923F08053D361DCE72F4B00221A6631
:102E6C00FFF738FE05462B4B1B6813F0007F06D08E
:102E7C00FFF730FE401B0228F5D9032041E0236AFE
:102E8C00B3F5803F1AD023494B6823F47413226A9C
:102E9C00606A024313434B601F4B01221A66FFF713
:102EAC0019FE04461B4B1B6813F0007F0ED1FFF775
:102EBC0011FE001B0228F5D9032022E0154A5368A5
:102ECC0023F40033A1680B435360DCE7002018E0C7
:102EDC00002016E0012B16D00E4B5B6803F48031FA
:102EEC00226A914211D103F47013626A93420ED19B
:102EFC00002006E001207047012002E0012000E0E4
:102F0C00002002B070BD0120FBE70120F9E7012091
:102F1C00F7E700BF00100240000042420F4B5B6815
:102F2C0003F00C02082A01D00D487047C3F383420A
:102F3C000C49885C13F4803F0BD0084B5B68C3F3DF
:102F4C004043094AD35C064A02FB00F0B0FBF3F0A5
:102F5C007047064B03FB00F0704700BF00100240A7
:102F6C0000127A00E04B0008DC4B000800093D0021
:102F7C00002800F0A08070B50D460446524B1B682B
:102F8C0003F007038B420BD24F4A136823F007035D
:102F9C000B431360136803F007038B4240F08D80E2
:102FAC00236813F0020F17D013F0040F04D0474A14
:102FBC00536843F4E0635360236813F0080F04D0A4
:102FCC00424A536843F460535360404A536823F0B9
:102FDC00F003A1680B435360236813F0010F31D049
:102FEC006368012B20D0022B25D0384A126812F0CE
:102FFC00020F64D035494A6822F0030213434B6038
:10300C00FFF768FD0646314B5B6803F00C03626802
:10301C00B3EB820F16D0FFF75DFD801B41F28833B6
:10302C009842F0D9032045E0284A126812F4003F78
:10303C00E0D101203EE0254A126812F0007FD9D180
:10304C00012037E0204B1B6803F00703AB420AD981
:10305C001D4A136823F007032B431360136803F016
:10306C000703AB422DD1236813F0040F06D0174A87
:10307C00536823F4E063E1680B435360236813F057
:10308C00080F07D0114A536823F46053216943EAAF
:10309C00C1035360FFF742FF0C4B5B68C3F3031390
:1030AC000B4AD35CD8400B4B18600B4B1868FFF7DE
:1030BC00CDFC002070BD012070470120FAE70120F3
:1030CC00F8E70120F6E700BF0020024000100240A4
:1030DC00F04B0008580000205400002070B582B05E
:1030EC000446036813F0010F36D03F4BDB6913F035
:1030FC00805F49D13C4BDA6942F08052DA61DB697E
:10310C0003F080530193019B0125384B1B6813F48A
:10311C00807F3BD0344B1B6A13F4407313D062682E
:10312C0002F440729A420ED02F4A136A23F4407074
:10313C002F490126C1F840640026C1F84064106292
:10314C0013F0010F36D1284A136A23F440736168D7
:10315C000B431362002D3ED1236813F0020F06D0EF
:10316C00214A536823F44043A1680B4353602368FE
:10317C0013F0100F34D01C4A536823F48003E16819
:10318C000B43536000202CE00025BEE7174A136860
:10319C0043F480731360FFF79DFC0646134B1B68CA
:1031AC0013F4807FB6D1FFF795FC801B6428F5D90A
:1031BC00032016E0FFF78EFC06460B4B1B6A13F040
:1031CC00020FC0D1FFF786FC801B41F28833984276
:1031DC00F3D9032005E0D36923F08053D361BBE717
:1031EC00002002B070BD00BF001002400070004013
:1031FC000000424270B582B00024A446A1E07E4D8E
:10320C00AB4214D00CD8A5F58015AB420FD005F508
:10321C007025AB420BD0A5F58015AB4210D106E062
:10322C00764DAB4203D005F58035AB4208D18B68A7
:10323C00002B50D0012B49D04261082400E0CC680F
:10324C00BEF1FF0F49D806464FEA8C0233680F25B2
:10325C00954023EA050304FA02F2134333604B68EA
:10326C0013F0805F6BD0664B9A6942F001029A6151
:10327C009B6903F001030193019B4FEA9C02951C8F
:10328C00604B53F825600CF00305AD000F23AB40E9
:10329C0026EA03065C4B984226D003F580639842DD
:1032AC0000F08C8003F58063984200F0898003F570
:1032BC008063984216D0042317E0CC680434BFE72F
:1032CC00CC680834BCE7CC680C34B9E7026108243C
:1032DC00B6E70024B4E70424B2E7061DACF10802FB
:1032EC009200B3E7032300E00023AB4033430232E8
:1032FC00444D45F822304B6813F4801F62D0434A8A
:10330C00936843EA0E0393604B6813F4001F5FD07D
:10331C003E4AD36843EA0E03D3604B6813F4003F74
:10332C005CD03A4A536843EA0E0353604B6813F47B
:10333C00803F59D0354A136843EA0E0313600CF1F1
:10334C00010C0B6833FA0CF254D0012202FA0CF285
:10335C0003EA020E32EA0303F1D14B68122B3FF65B
:10336C004EAF122B3FF66CAF01A555F823F000BF02
:10337C003B3200084B320008CD320008DF32000827
:10338C004D3200084D3200084D3200084D32000815
:10339C004D3200084D3200084D3200084D32000805
:1033AC004D3200084D3200084D3200084D320008F5
:1033BC004D320008C7320008D3320008012394E7CD
:1033CC00022392E7114A936823EA0E0393609BE76A
:1033DC000E4AD36823EA0E03D3609EE70B4A536868
:1033EC0023EA0E035360A1E7084A136823EA0E038D
:1033FC001360A4E702B070BD000022100000311071
:10340C00001002400000014000080140000401408F
:10341C000AB10161704709040161704708B590F861
:10342C002130DBB2022B03D004238363012008BDBF
:10343C000268136823F00E0313600268136823F00C
:10344C00010313600368194A934214D01432934257
:10345C001FD0143293421ED0143293421ED0143219
:10346C0093421ED01432934202D04FF0807203E08C
:10347C004FF4801200E001220D4B5A60012380F8BA
:10348C002130002380F82030436B6BB1984700202B
:10349C00CDE71022F0E74FF48072EDE74FF4805245
:1034AC00EAE74FF48032E7E70020C0E7080002406B
:1034BC0000000240002808DB0901C9B200F160409D
:1034CC0000F5614080F80013704700F00F0009010F
:1034DC00C9B2014B1954704714ED00E000B500F06F
:1034EC000700C0F1070CBCF1040F28BF4FF0040C0F
:1034FC00031D062B0FD9C31E4FF0FF3E0EFA0CF026
:10350C0021EA000199400EFA03FE22EA0E0241EA7A
:10351C0002005DF804FB0023EEE70000074AD368C5
:10352C0023F4E0631B041B0C000200F4E060034373
:10353C0043F0BF6343F40033D360704700ED00E009
:10354C0010B50446054BD868C0F30220FFF7C6FF40
:10355C0001462046FFF7AEFF10BD00BF00ED00E0B6
:10356C00002807DB00F01F02400901239340024AA8
:10357C0042F82030704700BF00E100E00138B0F1A4
:10358C00807F0BD24FF0E0235861054AF02182F87E
:10359C0023100020986107221A61704701207047A0
:1035AC0000ED00E0002856D010B50446436A33B94C
:1035BC004368B3F5827F05D00023C36102E000238A
:1035CC00036143610023A36294F85130002B3CD07B
:1035DC00022384F851302268136823F040031360EF
:1035EC00636803F48273A26802F404421343E26832
:1035FC0002F400621343226902F00202134362696F
:10360C0002F001021343A26902F400721343E2694F
:10361C0002F038021343226A02F080021343A26ABA
:10362C0002F40052216813430B60638B226803F091
:10363C00040353602268D36923F40063D361002030
:10364C006065012384F8513010BD84F85030204659
:10365C00FCF776FFBCE701207047704730B585B0AA
:10366C000446026851689368C3F3801013F0400F4E
:10367C0005D113F0010F02D011F0400F5AD113F005
:10368C00020F02D011F0800F58D1C3F3401513F084
:10369C00200F01D1002854D011F0200F51D078B157
:1036AC0094F85130DBB2032B4DD0636D43F004031F
:1036BC00636500230193D368019393680193019B85
:1036CC0065B1636D43F00103636500230393936855
:1036DC000393136823F040031360039B636D002B6B
:1036EC002FD02268536823F0E0035360012384F841
:1036FC00513011F0030F2ED02268536823F00303CE
:10370C005360E36C4BB1164A5A63E06CFFF786FECC
:10371C0018B1636D43F040036365A36C8BB1104A21
:10372C005A63A06CFFF77AFE58B1636D43F0400307
:10373C00636506E0236C2046984702E0636C2046E4
:10374C00984705B030BD00230293D3680293936869
:10375C000293029BF5E72046FFF77FFFF1E700BFDE
:10376C007137000808B5406A0023C387C386FFF78A
:10377C0074FF08BD30B4026A036A23F001030362CC
:10378C004568836923F073030C681C4322F0020222
:10379C008B6813430B4A904206D0456084614A689B
:1037AC004263036230BC704723F00803CA681A43B3
:1037BC0022F0040325F440754A692A438D691543A8
:1037CC00EBE700BF002C014030B4036A026A22F41C
:1037DC00807202624468C26922F073020D6815435C
:1037EC0023F400738A6843EA02230D4A904206D000
:1037FC004460C5614A68C263036230BC704723F4FD
:10380C000063CA6843EA022323F4806324F440541F
:10381C004A6944EA02148A6944EA0214E8E700BFE0
:10382C00002C014030B4036A026A22F48052026216
:10383C004468C26922F4E6420D6842EA052223F488
:10384C0000538D6843EA0533074DA84206D0446007
:10385C00C2614A680264036230BC704724F480443D
:10386C004D6944EA8514F2E7002C014010B4036A58
:10387C00046A24F001040462846924F0F00C4CEA1C
:10388C00021223F00A030B438261036210BC7047DF
:10389C0010B4036A046A24F010040462846924F4EA
:1038AC00704C4CEA023223F0A00343EA011382610C
:1038BC00036210BC7047836823F070030B4343F022
:1038CC00070383607047704703681B4A90420AD015
:1038DC00B0F1804F07D0A2F59432904203D002F59C
:1038EC008062904203D123F070034A681343124A5A
:1038FC0090420AD0B0F1804F07D0A2F5943290429A
:10390C0003D002F58062904203D123F44073CA685D
:10391C00134323F080034A69134303608B68C3622B
:10392C000B688362044B984202D0012343617047B9
:10393C000B690363F9E700BF002C014040B310B5DD
:10394C00044690F83D30F3B1022384F83D30214613
:10395C0051F8040BFFF7B8FF012384F8463084F8C4
:10396C003E3084F83F3084F8403084F8413084F89D
:10397C00423084F8433084F8443084F8453084F87D
:10398C003D30002010BD80F83C30FCF795FEDBE7A5
:10399C000120704740B310B5044690F83D30F3B1A8
:1039AC00022384F83D30214651F8040BFFF78CFFBD
:1039BC00012384F8463084F83E3084F83F3084F894
:1039CC00403084F8413084F8423084F8433084F835
:1039DC00443084F8453084F83D30002010BD80F828
:1039EC003C30FFF770FFDBE701207047002856D012
:1039FC0070B50D46044690F83D30002B4AD002239A
:103A0C0084F83D302268936823F4804323F0070345
:103A1C009360214651F8040BFFF756FF21688B6821
:103A2C008A690E6A2868184322F4407222F0030255
:103A3C00AB68D5F818C043EA0C23134323F47C433A
:103A4C0023F0FC03EA68D5F81CC042EA0C221A43A6
:103A5C002B6A1B03D5F810C043EA0C13134326F052
:103A6C0022066A686D6942EA051232438860216851
:103A7C008B6123681A62012384F8463084F83E3047
:103A8C0084F83F3084F8423084F8433084F83D3079
:103A9C00002070BD80F83C30FCF79EFDAFE70120A4
:103AAC007047000030B4036A026A22F0100202620E
:103ABC004468826922F4E6420D6842EA052223F04A
:103ACC0020038D6843EA05130C4DA84206D04460D0
:103ADC0082614A688263036230BC704723F08003C2
:103AEC00CD6843EA051323F0400324F440644D6988
:103AFC0044EA85048D6944EA8504E8E7002C01401A
:103B0C0038B590F83C30012B66D004460D460123A5
:103B1C0080F83C300C2A5AD8DFE802F00759595982
:103B2C001B5959593059595944000068FFF722FE66
:103B3C002268936943F0080393612268936923F028
:103B4C00040393612268936929690B4393610020F4
:103B5C003EE00068FFF7A6FF2268936943F4006318
:103B6C0093612268936923F480639361226893695B
:103B7C00296943EA01239361002029E00068FFF7DB
:103B8C0023FE2268D36943F00803D3612268D3690A
:103B9C0023F00403D3612268D36929690B43D361F1
:103BAC00002015E00068FFF73DFE2268D36943F45E
:103BBC000063D3612268D36923F48063D3612268E4
:103BCC00D369296943EA0123D361002000E0012075
:103BDC00002384F83C3038BD0220FCE710B4846824
:103BEC0024F47F4C42EA03220A4342EA0C0282602C
:103BFC0010BC704790F83C30012B78D010B50446BF
:103C0C00012380F83C30022380F83D300268936831
:103C1C0023F47F4323F0770393600B68602B4CD025
:103C2C0023D8402B54D011D8202B03D00AD80BB159
:103C3C00102B05D119462068FFF73DFE002028E027
:103C4C00012026E0302BF5D0012022E0502B0AD1A8
:103C5C00CA6849680068FFF709FE50212068FFF721
:103C6C002AFE002015E0012013E0B3F5805F3AD066
:103C7C00B3F5005F14D0702B37D1CB684A688968D4
:103C8C000068FFF7ABFF2268936843F077039360FB
:103C9C000020012384F83D30002384F83C3010BD13
:103CAC00CB684A6889680068FFF798FF22689368B8
:103CBC0043F4804393600020EBE7CA6849680068CE
:103CCC00FFF7E6FD60212068FFF7F5FD0020E0E737
:103CDC00CA6849680068FFF7C9FD40212068FFF7F2
:103CEC00EAFD0020D5E70020D3E70120D1E7022030
:103CFC007047000090F83C20012A2CD010B40346E9
:103D0C00012280F83C20022280F83D200268506895
:103D1C00946820F0700C086840EA0C0050601A6837
:103D2C000E4882420AD0B2F1804F07D0A0F59430F1
:103D3C00824203D000F58060824204D124F08004DA
:103D4C00496821439160012283F83D20002083F8CB
:103D5C003C0010BC70470220704700BF002C014093
:103D6C00704798B108B50346D0F8B40210B10020E2
:103D7C00C3F8B40209B1C3F8B012012183F89C1244
:103D8C001A701846FCF70EFE002008BD0220704782
:103D9C0019B1C0F8B412002070470220704708B562
:103DAC00FCF742FE002008BD08B5D0F8B4322BB1A8
:103DBC001B68984700B908BD0220FCE70220FAE70F
:103DCC0008B5D0F8B4325B689847002008BD38B508
:103DDC00044600F52A75284600F035F90123C4F88D
:103DEC009432B4F8AE32C4F8983294F8A81201F0B8
:103DFC001F03012B08D0022B0BD07BB92946204680
:103E0C0000F0D0FA002038BD2946204600F0FEFA1A
:103E1C00F8E72946204600F029FBF3E701F0800182
:103E2C002046FCF71CFEEDE738B504460D4691BB69
:103E3C001346D0F89422032A03D0052A24D008462E
:103E4C0033E0D0F86011D0F8642191420DD9891A71
:103E5C00C0F860118A4206D98AB21946204600F091
:103E6C0037FC284621E092B2F7E7D0F8B4321B6950
:103E7C001BB190F89C22032A04D0204600F030FCA1
:103E8C00284612E09847F8E70021C0F89412FCF796
:103E9C00E6FD284609E0D0F8B4329B6933B190F8BE
:103EAC009C22032A04D19847002038BD0220FCE74D
:103EBC000220FAE738B504460D46002953D11346C3
:103ECC00D0F89422022A0CD0042A00D01AB98021EE
:103EDC002046FCF7C4FD94F8A032012B3ED02846B6
:103EEC0038BD026A416A8A421BD8C269B2FBF1F33F
:103EFC0001FB13232BB9914203D8D0F898329A4284
:103F0C001CD3D4F8B432DB681BB194F89C22032A7E
:103F1C0021D080212046FCF7A2FD204600F0EBFBCF
:103F2C00D9E7521A026292B2194600F0BAFB00238A
:103F3C001A4619462046FCF7C9FDCCE7002211466B
:103F4C0000F0AFFB0021C4F898120B460A4620463D
:103F5C00FCF7BCFDBFE720469847DAE7002384F85E
:103F6C00A0322846BCE7D0F8B4325B6933B190F884
:103F7C009C22032A04D198470020B1E70220AFE726
:103F8C000220ADE770B50446402300221146FCF731
:103F9C0053FD0125C4F858514026C4F864613346DA
:103FAC00002280212046FCF747FDA561666284F85B
:103FBC009C520023C4F894326360C4F8A432D4F841
:103FCC00B8322BB1D4F8B4325B6800212046984744
:103FDC00002070BD01740020704790F89C3280F86E
:103FEC009D32042380F89C320020704790F89C325C
:103FFC00042B01D00020704790F89D3280F89C3241
:10400C00F8E708B590F89C32032B01D0002008BDCE
:10401C00D0F8B432DB69002BF8D09847F6E70346AA
:10402C00002002E00130C0B201331A78002AF9D125
:10403C00704708B54B88012B00D008BDC0F8A432DE
:10404C0000F04EFBF9E70B7803704B7843708B78DC
:10405C00CA7803EB022343800B794A7903EB0223E2
:10406C0083808B79CA7903EB0223C380704710B528
:10407C0004468021FCF7F3FC00212046FCF7EFFC02
:10408C0010BD30B583B005460C460023ADF80630A4
:10409C004A88130A013B062B00F2A480DFE803F0E8
:1040AC0004182CA2A2869300D0F8B0321B680DF134
:1040BC000601007C9847BDF806201AB1E388002B56
:1040CC0040F09480E388002B00F09A8003B030BD60
:1040DC00037C43B9D0F8B4329B6A0DF106009847C3
:1040EC0002234370E7E7D0F8B432DB6A0DF1060027
:1040FC00984702234370DEE7D2B2052A52D8DFE894
:10410C0002F003101D2A3744D0F8B0325B6823B19B
:10411C000DF10601007C9847CDE72146FFF7A7FF7C
:10412C00D4E7D0F8B0329B6823B10DF10601007CC6
:10413C009847C0E72146FFF79AFFC7E7D0F8B0329F
:10414C00DB6823B10DF10601007C9847B3E72146EB
:10415C00FFF78DFFBAE7D0F8B0321B6923B10DF130
:10416C000601007C9847A6E72146FFF780FFADE7E4
:10417C00D0F8B0325B6923B10DF10601007C984791
:10418C0099E72146FFF773FFA0E7D0F8B0329B699F
:10419C0023B10DF10601007C98478CE72146FFF70F
:1041AC0066FF93E72146FFF762FF8FE7037C33B985
:1041BC00D0F8B4325B6B0DF1060098477BE72146D3
:1041CC00FFF755FF82E7037C43B9D0F8B4321B6B81
:1041DC000DF106009847072343706CE72146FFF763
:1041EC0046FF73E72146FFF742FF6FE79A4228BF6D
:1041FC001A46ADF806200146284600F045FA61E75C
:10420C00284600F06DFA61E738B504468B88F3B99F
:10421C00CB88E3B94B887F2B19D803F07F0590F836
:10422C009C32032B0CD080F89E522946FCF73EFCA6
:10423C00204600F055FA35B1022384F89C3209E08F
:10424C00FFF715FF06E0012384F89C3202E02046BC
:10425C00FFF70DFF38BD000038B504460D468978D0
:10426C00284B197001290ED890F89C32022B0ED0D5
:10427C00032B21D02946FFF7FAFE224B1978204652
:10428C00FFF79EFD02E02946FFF7F1FE38BD81B134
:10429C004160032380F89C32FFF786FD022803D08F
:1042AC00204600F01DFAF1E729462046FFF7DFFE15
:1042BC00ECE700F015FAE9E789B1436899421DD0A3
:1042CC00D9B2FFF77DFD0F4B197861602046FFF7DF
:1042DC006BFD02280DD0204600F002FAD6E702232F
:1042EC0080F89C324160FFF76BFD204600F0F8F936
:1042FC00CCE729462046FFF7BAFEC7E700F0F0F9F5
:10430C00C4E700BFE80C002008B5CB88012B0AD10C
:10431C0090F89C32022B09D9032B11D10122011DDB
:10432C0000F0B2F901E0FFF7A2FE08BD5BB23BB1B1
:10433C000146002341F8083F012200F0A5F9F4E7FB
:10434C00FFF795FEF1E708B590F89C32013B022B84
:10435C0012D8CB88022B0CD10123C360D0F8A43225
:10436C000BB10323C360022200F10C0100F08CF9A5
:10437C0008BDFFF77CFEFBE7FFF779FEF8E708B511
:10438C0090F89C32013B022B09D84B88012B00D0B2
:10439C0008BD0023C0F8A43200F0A2F9F8E7FFF73B
:1043AC0066FEF5E708B50B7803F06003202B05D00B
:1043BC00402B03D043B1FFF75AFE03E0D0F8B432E0
:1043CC009B689847002008BD4B78092B1BD8DFE869
:1043DC0003F011171A141A08051A0E0BFFF751FEE9
:1043EC00F0E7FFF711FFEDE7FFF736FFEAE7FFF71E
:1043FC008BFFE7E7FFF7A7FFE4E7FFF71AFEE1E71C
:10440C00FFF7BDFFDEE7FFF732FEDBE738B5054609
:10441C000C460B7803F06003202B06D0402B04D005
:10442C001BB1FFF724FE002038BD95F89C32013BF0
:10443C00022B16D82379012B0ED8D5F8B4329B68F1
:10444C00214628469847E388002BECD10028EAD176
:10445C00284600F045F9E6E721462846FFF707FE17
:10446C00E1E721462846FFF702FEDCE770B505467A
:10447C008B880C7804F06004202C07D0DAB2402C26
:10448C0004D05CB1FFF7F3FD002405E0D5F8B4329D
:10449C009B68284698470024204670BD202C09D0E4
:1044AC004E78012E33D0032E0AD0002E55D0FFF7B4
:1044BC00DEFDF1E7D0F8B4329B6898470446EBE791
:1044CC0090F89C32022B04D0032B11D0FFF7CFFDB8
:1044DC00E2E70AB1802A03D12846FFF7C8FDDBE7E3
:1044EC001146FCF7BCFA80212846FCF7B8FAD3E752
:1044FC004B8823B91AB1802A01D0CB881BB128462E
:10450C0000F0EEF8C8E71146FCF7A9FAF7E790F8C7
:10451C009C32022B04D0032B11D0FFF7A8FDBBE774
:10452C000AB1802A03D12846FFF7A1FDB4E7114652
:10453C00FCF795FA80212846FCF791FAACE74B88FA
:10454C00002BA9D112F07F0F03D1284600F0C8F838
:10455C00A2E71146FCF78BFAF7E790F89C020228C9
:10456C0006D0032829D02846FFF781FD344693E76F
:10457C000AB1802A13D113F0800F15D102F07F02FB
:10458C0002EB8202910001F5A87129440431002349
:10459C000B600222284600F077F834467CE7284668
:1045AC00FFF765FD344677E702F07F0202EB8202EB
:1045BC009100103129440431E9E75BB2002B1FDB79
:1045CC0002F00F0000EB800005EB8000D0F85801E2
:1045DC0020B3002B27DB02F07F0303EB83039C004B
:1045EC0004F5A8742C4404340AB1802A24D1002385
:1045FC00236002222146284600F046F834464BE759
:10460C0002F00F0000EB800005EB800080690028B1
:10461C00DFD12846FFF72BFD34463DE72846FFF750
:10462C0026FD344638E702F07F0303EB83039C003E
:10463C0010342C440434D7E711462846FCF71FFAF3
:10464C0010B101232360D4E700232360D1E7D0B15C
:10465C0070B50D4616460446FFF7E1FC431C5B00A3
:10466C009BB233802B7003236B70022307E0013461
:10467C005A1CD2B2E8540233DBB20021A954207880
:10468C000028F4D170BD704708B513460222C0F85B
:10469C009422C36103620A460021FCF70FFA002042
:1046AC0008BD08B513460A460021FCF707FA00209E
:1046BC0008BD08B513460322C0F89422C0F85C313B
:1046CC00C0F860310A460021FCF700FA002008BD52
:1046DC0008B513460A460021FCF7F8F9002008BD7E
:1046EC0008B50423C0F8943200231A461946FCF787
:1046FC00E5F9002008BD08B50523C0F89432002365
:10470C001A461946FCF7E2F9002008BD0020704754
:10471C000020704710B5064C00220649204600F0D8
:10472C0095F90549204600F099F9002010BD00BF0D
:10473C0010030020EC0C00202C0D0020094BD3F8AA
:10474C00B832D3F814320BB10120704710B5054CB8
:10475C000A460146204600F079F9204600F084F91B
:10476C0010BD00BF1003002010B501460C4C2046B4
:10477C0000F074F9204600F090F90A4C2046FBF743
:10478C00BFFC81B22046FFF7D9FF002303E0054AA6
:10479C000021D15401333F2BF9DD002010BD00BFA7
:1047AC00100300202C0D002010B5D0F8B842D0F822
:1047BC00BC325BB194F80002FF2807D09B6894F8D8
:1047CC00012221469847FF2384F80032002010BDB7
:1047DC004323038000487047B0000020432303802C
:1047EC0000487047F40000204323038000487047C2
:1047FC006C0000200A2303800048704770010020E1
:10480C0038B50446D0F8B852FCF768F9C5F80C0274
:10481C00D4F8B8324BB1D4F8BC32DB6805F503716F
:10482C00D5F804029847002038BD0220FCE710B5EB
:10483C00D0F8B822D0F8C042F2B101EB810300EB02
:10484C008303DB694BB101EB810C04EBCC04A46B4F
:10485C00B3FBF4FC04FB1C3323B10023C2F8143269
:10486C00002010BD01EB810300EB83030022DA6111
:10487C001346FCF723F9F3E70220F2E7F0B583B017
:10488C0006460C46D0F8B87200238DF80730ADF808
:10489C0004300B7813F0600527D0202D53D1CA8833
:1048AC00DAB113F0800F0CD0D0F8BC329B683946CB
:1048BC0060789847E28839463046FFF7E5FE0025D8
:1048CC0044E04B7887F800328B7987F80132CA883C
:1048DC003946FFF7EEFE002538E0D0F8BC329B6875
:1048EC00002248789847002530E04F780A2F10D0E6
:1048FC000B2F1CD01FBB90F89C32032B03D0FFF75F
:10490C00B6FB022522E0022201A9FFF7BDFE3D46BF
:10491C001CE090F89C32032B03D0FFF7A8FB022578
:10492C0014E001220DF10701FFF7AEFE0EE090F846
:10493C009C32032B0AD0FFF79AFB022506E0FFF707
:10494C0096FB022502E0FFF792FB0225284603B0F6
:10495C00F0BD38B504468121FCF779F80025E562F5
:10496C0001212046FCF773F8C4F86C5182212046D3
:10497C00FCF76DF82564D4F8B8324BB1D4F8BC32DE
:10498C005B689847D4F8B802FCF7B2F8C4F8B85290
:10499C00002038BD70B50446037CABBB4FF40073EC
:1049AC0002228121FCF748F80125E5624FF40073DF
:1049BC00022229462046FCF73FF8C4F86C51082324
:1049CC00032282212046FCF737F8012323644FF49D
:1049DC000770FCF789F80546C4F8B80268B3D4F838
:1049EC00BC321B6898470023C5F81432C5F818323E
:1049FC00267CCEB94FF40073D5F804220121204651
:104A0C00FCF764F8304670BD402302228121FCF78C
:104A1C0013F80125E5624023022229462046FCF7C3
:104A2C000BF8C4F86C51CAE74023D5F804220121D5
:104A3C002046FCF74BF80026E4E70126E2E719B123
:104A4C00C0F8BC120020704702207047D0F8B83272
:104A5C00C3F80812C3F8102200207047D0F8B832FF
:104A6C00C3F8041200207047D0F8B8229AB108B5E8
:104A7C00D2F814320BB1012008BD0123C2F8143254
:104A8C00D2F8103203639BB2D2F808228121FCF7D2
:104A9C0015F80020F0E702207047D0F8B82292B148
:104AAC0008B5037C43B94FF40073D2F804220121FA
:104ABC00FCF70CF8002008BD4023D2F80422012199
:104ACC00FCF704F8F6E7022070470000FFF748F9FE
:104ADC000B480C490C4A002302E0D458C450043350
:104AEC00C4188C42F9D3094A094C002301E0136025
:104AFC000432A242FBD300F017F8FBF7CEFC704750
:104B0C00000000207C010020104C00087C010020DB
:104B1C006C0D0020FEE703460244934200D170471F
:104B2C0003F8011BF9E7000070B500260C4D0D4C85
:104B3C00641BA410A64209D100F01AF800260A4DF5
:104B4C000A4C641BA410A64205D170BD55F8043B59
:104B5C0098470136EEE755F8043B98470136F2E7E3
:104B6C00084C0008084C0008084C00080C4C0008C5
:104B7C00F8B500BFF8BC08BC9E467047F8B500BF3E
:084B8C00F8BC08BC9E4670470E
:104B940053544D3332205669727475616C20436FDF
:104BA4006D506F727400000053544D6963726F65E9
:104BB4006C656374726F6E696373000043444320D1
:104BC400436F6E666967000043444320496E746511
:104BD40072666163650000000102000002030405BF
:104BE400060708090A0B0C0D0E0F10100000000038
:0C4BF4000000000001020304060708098D
:084C00000CB5FF7F010000006C
:044C0800410100085E
:044C0C001D0100087E
:104C10001A03000000000000000000000000000077
:104C20000000000000000000000000000403090470
:104C300012010002020200408304405700020102F8
:104C4000030100008D070008990700085D080008AF
:104C50003908000825080008790800089D080008A0
:104C600001000000100000000024F40021470008AB
:104C7000194700081D470008754700080907430049
:104C8000020104C0320904000001020201000524EF
:104C9000001001052401000104240202052406007D
:104CA000010705820308001009040100020A000040
:104CB00000070501024000000705810240000000D6
:104CC00009024300020100C032090400000102028F
:104CD0000100052400100105240100010424020242
:104CE00005240600010705820308001009040100DD
:104CF000020A0000000705010240000007058102CA
:104D00004000000009024300020100C03209040013
:104D10000001020201000524001001052401000128
:104D2000042402020524060001070582030800107E
:104D300009040100020A0000000705010200020048
:104D40000705810200020000A14900085F49000830
:104D50008948000800000000B54700083B480008EB
:104D60000D480008000000000000000000000000E6
:104D7000E9470008DD470008F5470008014800083A
:0C4D80000A0600020000004001000000D4
:0400000508004AD9CC
:00000001FF
